S01E000055534152545F72656769737465725F636F6E74726F6C2E7372656353
S11300000C9434000C9451000C9451000C94510045
S11300100C9451000C9451000C9451000C94510018
S11300200C9451000C9451000C9451000C94510008
S11300300C9451000C9451000C9451000C945100F8
S11300400C9451000C9451000C94E0000C94510059
S11300500C9451000C9451000C9451000C945100D8
S11300600C9451000C94510011241FBECFEFD8E022
S1130070DEBFCDBF11E0A0E0B1E0E8E5F2E002C0F0
S113008005900D92AA36B107D9F721E0AAE6B1E0AE
S113009001C01D92AC36B207E1F70E94D4000C9463
S11300A02A010C940000CF93DF93CDB7DEB72A97D3
S11300B00FB6F894DEBF0FBECDBFFC01892BC9F586
S11300C08091C00085FFFCCF80E38093C6004AC0C6
S11300D09F01ADECBCEC0E941B019695879596950B
S11300E08795969587959C01220F331F880F991F3A
S11300F0880F991F880F991F820F931F9F01281B38
S1130100390BC901A1E0B0E0AC0FBD1FA40FB51FAE
S1130110805D8C939F01ADECBCEC0E941B01FC0143
S1130120F695E795F695E795F695E7954F5F5F4F5A
S113013002C040E050E0309759F69A01215031094D
S11301400FC08091C00085FFFCCFE1E0F0E0EC0F30
S1130150FD1FE20FF31F80818093C60021503109F7
S113016033237CF72A960FB6F894DEBF0FBECDBFBB
S1130170DF91CF910895FC0107C09091C00095FFD5
S1130180FCCF31968093C60080818111F6CF08950B
S11301901092C50087E68093C40086E08093C20075
S11301A088E98093C10008950E94C800789480E093
S11301B091E00E94BB008EE191E00E94BB00FFCF62
S11301C01F920F920FB60F9211242F933F934F93C8
S11301D05F936F937F938F939F93AF93BF93EF93AB
S11301E0FF938091C60080916A0190916B01019602
S11301F090936B0180936A0188E491E00E94BB00B4
S113020080916A0190916B010E94530085E491E012
S11302100E94BB00FF91EF91BF91AF919F918F918D
S11302207F916F915F914F913F912F910F900FBEEE
S11302300F901F901895A29FB001B39FC001A39F78
S1130240700D811D1124911DB29F700D811D11240B
S10B0250911D0895F894FFCFFD
S1130258555341525420496E7465727275707420F6
S113026854657374205374617274210D0A005072BA
S113027865737320616E79206B657920746F2069CA
S11302886E6372656D656E742074686520636F753E
S11302986E742E0D0A0D0A00496E7075742044653B
S11302A8746563746564212043757272656E742085
S10D02B8436F756E74202D3E200084
S9030000FC
